S011000073657269616C436F6D2E7372656374
S11300000C942A000C943C000C943C000C943C008E
S11300100C943C000C943C000C943C000C943C006C
S11300200C943C000C943C000C943C000C943C005C
S11300300C943C000C943C000C943C000C943C004C
S11300400C943C000C943C000C943C000C943C003C
S11300500C943C0011241FBECFE5D8E0DEBFCDBF19
S113006020E0A0E6B0E001C01D92AC36B207E1F793
S11300700E9468000C94B4000C94000010BC8CE046
S113008089B9599A8AB188698AB980B5866880BD68
S113009008955F9BFECF8CB108950F931F93CF9368
S11300A0DF938C01D62FC0E00E944900F801EC0FC9
S11300B0F11D80838D1711F0CF5FF6CFF801EC0F9F
S11300C0F11D1082C801DF91CF911F910F91089506
S11300D08EEF81BB8CE182BB8FEF87BB0E943E0019
S11300E07894C2E00DC060E682E690E00E944D0084
S11300F082E690E00E948E009093610080936000FD
S11301008091600090916100009769F30197C1F7B5
S1130110C8BB1092610010926000F2CFFC018827E6
S11301209927E89421912032E9F3293010F02E30F8
S1130130C8F32B3241F02D3239F4689404C00E9484
S1130140AC00820F911D219120532A30C0F31EF47C
S1130150909581959F4F08957AE0979F902D879F62
S10F0160802D910D11240895F894FFCF18
S9030000FC
